:020000040800F2
:10000000383300201D0300089158000845540008AB
:100010008D580008F915000805620008000000006E
:10002000000000000000000000000000055900086A
:100030002518000800000000015900085D5900085B
:1000400037030008370300083703000837030008A8
:100050003703000837030008370300083703000898
:100060003703000837030008370300083703000888
:100070003703000837030008370300083703000878
:100080003703000837030008370300082D1600085F
:10009000FD1500080D1600081D160008370300089E
:1000A0003703000837030008370300083703000848
:1000B0003703000837030008370300083703000838
:1000C0003703000837030008370300083703000828
:1000D00037030008F56100083703000837030008FC
:1000E0003703000837030008370300083703000808
:1000F00037030008370300083703000837030008F8
:1001000037030008370300083703000837030008E7
:1001100037030008370300083703000837030008D7
:1001200037030008370300087D160008370300086E
:100130003703000837030008370300086D1600086E
:100140003D1600084D1600085D160008370300082C
:100150003703000837030008370300083703000897
:100160003703000837030008370300083703000887
:1001700037030008370300083703000800000000B9
:100180003703000837030008795900088959000827
:100190003703000837030008370300083703000857
:1001A00000000000000000003703000800F002F823
:1001B00000F0A4F80AA090E8000C82448344AAF15D
:1001C0000107DA4501D100F099F8AFF2090EBAE85B
:1001D0000F0013F0010F18BFFB1A43F0010318477B
:1001E00094D20000B4D200000A4410F8014B14F07D
:1001F0000F0508BF10F8015B240908BF10F8014B78
:100200006D1E05D010F8013B6D1E01F8013BF9D1C0
:10021000641E03D0641E01F8015BFBD19142E4D35C
:10022000704700000023002400250026103A28BF54
:1002300078C1FBD8520728BF30C148BF0B60704758
:100240006E2900F04B82702900F08F8366290CF034
:10025000E48665290CF0E18667290CF0DE866129C9
:100260000CF0DD8603681B0A28BF41F08001692974
:1002700000F0F881642900F0F581752900F0F28121
:100280006F2900F01D83782900F05B83E92900F0D5
:10029000B782E42900F0B482F52900F0B182EF2999
:1002A00000F01A83F82900F05A830368DB0928BF9D
:1002B00041F08001632901F05F80732901F06480BF
:1002C000E32901F06F80F32901F07480002070476A
:1002D0001FB50CF090FE01F0C7F8040000200021CB
:1002E0000CF07CFD401C6060002000210CF060FDE3
:1002F000E06000F037F91FBD10B510BD01F086F8C1
:100300001146FFF7E5FF0AF0DFFE01F063F903B4E1
:10031000FFF7F2FF03BC01F067F9000009488047CE
:1003200009480047FEE7FEE7FEE7FEE7FEE7FEE7D7
:10033000FEE7FEE7FEE7FEE704480549054A064BEF
:100340007047000065590008AD01000838270020FB
:1003500038330020382F0020382F002053EA020CB9
:1003600000F069802DE9F04B4FF00006002B1FBF15
:10037000B3FA83F503FA05F424FA05F65E4012BFDA
:100380001643B2FA82F502FA05F4C5F120051EBF44
:1003900022FA05FC44EA0C04203556EA044C4FEAE4
:1003A000144418BF641C4FF000084FF0000990423D
:1003B00071EB030C39D3002919BFB1FA81F701FAA7
:1003C00007F6B0FA80F700FA07F6C7F120071EBF5C
:1003D00020FA07FC46EA0C062037B6FBF4FCA7EB34
:1003E0000507103F07F01F0BCBF120062CFA06F68D
:1003F0000CFA0BFB44BFB3460026202FA4BF5E4679
:100400004FF0000B5BEA060C08BF4FF0010B19EB35
:100410000B0948EB0608ABFB027C06FB02CC0BFB8E
:1004200003CCC01B71EB0C01C1E70B4602464146F1
:100430004846BDE8F08B13B5084318BF4FF0FF30B6
:100440000146AFF30080BDE81C4070470FB41CB5F7
:100450000C0007AA009007D04142A14202D32044D9
:10046000401E01E04FF0FF30074B7B44694601908E
:10047000069800F04CF90021002C01D0009A117070
:100480001CBC5DF814FB0000C70200004FF0000226
:1004900000B5134694469646203922BFA0E80C507A
:1004A000A0E80C50B1F12001BFF4F7AF090728BF55
:1004B000A0E80C5048BF0CC05DF804EB890028BFD1
:1004C00040F8042B08BF704748BF20F8022B11F0FA
:1004D000804F18BF00F8012B70470000000000009B
:1004E00030B44FF0013C50F8042B51F8043BCCFAE7
:1004F00052F4D51A20D1FCB950F8042B51F8043B22
:10050000CCFA52F4D51A17D1B4B950F8042B51F8DB
:10051000043BCCFA52F4D51A0ED16CB950F8042B26
:1005200051F8043BCCFA52F4D51A05D1002CDAD09C
:1005300030BC4FF00000704729BAB1FA81F111F0D8
:100540001801D1F120008440F2D1CA40CB4012F012
:10055000FF0213F0FF0330BCD01A7047704770479A
:100560007047000070B5064C7C44064D7D4404E0A5
:100570002046016808448047241DAC42F8D170BD74
:1005800054D0000054D0000010B500F0BDFA00684F
:1005900010BD10B5044600F0B7FA046010BD70B588
:1005A000044685690068C10601D5302600E0202692
:1005B000C00707D070BDD4E9012130469047206ABA
:1005C000401C20626D1EF6D570BD70B5044685696D
:1005D0000078C00707D170BDD4E9012120209047E1
:1005E000206A401C20626D1EF6D570BD09684A0560
:1005F00001D540B27047C905FCD500B27047096803
:100600004A0501D5C0B27047C905FCD580B2704714
:1006100070B50C460546012A05D02878800600D51D
:10062000EA69002302E0012305E05B1C934202D249
:10063000E05C0028F9D1A869E618C01AA861286A08
:10064000184428622846FFF7AAFF04E0D5E90121F3
:1006500014F8010B9047B442F8D32846FFF7B5FFD2
:1006600070BD00002DE9F041064600241068752990
:10067000314616A510D0FFF7B9FF002802DA404234
:1006800013A507E031688A0701D512A502E04907E2
:1006900004D511A5012401E0FFF7B1FF00210A22D2
:1006A00006F1240709E0B0FBF2FCB0FBF2F302FB19
:1006B0001C00303078541846491C0028F3D12346DA
:1006C0002A463046BDE8F04100F067BA000000005D
:1006D0002D0000002B0000002000000011680268BF
:1006E000006A530501D508700AE0D30501D50880DA
:1006F00006E0130603D5C217C1E9000200E0086056
:100700000120704701694A1C02610878704700B5F2
:100710008FB0CDE901310021059105497944CDE93A
:1007200003101146684600F02BF90FB000BD000021
:10073000E5FFFFFFD1E900239A4202D2531C0B6070
:10074000107070472DE9FF5F15468A460446DFF8B2
:10075000AC80F8440027D8E900103E46CDE90010EF
:1007600010E03AF816106A4602A800F027FE411C75
:1007700007D02178890603D5E269391891420DD84E
:100780000744761C2078800602D5E069B84205DD72
:10079000AE42E6DB3AF816000028E2D1A069C01BA1
:1007A000A0612046FFF7FBFED8E90010CDE900105C
:1007B000002017E03AF818106A4602A800F0FEFD83
:1007C000B0F1FF3F81460BD000250DF1080B05E08D
:1007D000D4E901211BF8050090476D1C4D45F7D366
:1007E00008F10100B0428046E4DB206A3844206210
:1007F0002046FFF7EAFEBDE8FF9F00000ECA00009A
:100800002DE9F0418046D21D22F007020025D2E9F1
:100810000002F52915A614D0011E72F1000106DAB6
:100820000023D0EB030063EB020211A608E0D8F826
:1008300000108B0701D50FA602E0490701D50EA6CF
:1008400001251146002408F1240704E000F060F9B6
:1008500030323A55641C50EA0102F7D12B46324639
:1008600021464046BDE8F04100F097B90000000085
:100870002D0000002B0000002000000030B40021FB
:1008800000F1240408E002F00705D208303542EAFE
:100890004372DB086554491C52EA0305F3D104682E
:1008A000002310A2250708D504F020040C4304D02F
:1008B000C46901230CA2641EC46130BC00F06DB990
:1008C00010B5044621461068FFF799FE02462046FF
:1008D000BDE810400023D1E7D21D22F00701D1E985
:1008E0000023CBE70000000030000000F0B40D460C
:1008F0000188090502D5214C7C4402E01F4C7C4450
:100900000E34002100F1240608E002F00F0712095E
:10091000E75D42EA03721B097754491C52EA030758
:10092000F3D102780023120704D5702D06D009B147
:10093000022311342246F0BC00F02FB901231034F9
:10094000F8E770B504460D4621461068FFF757FEDC
:10095000024629462046BDE870400023C6E7D21D66
:1009600022F00703D3E90023C0E70368126843F0CD
:10097000200303600823C3610023B7E770C80000A9
:100980002DE9F05F894604464FF0000ADFF874B1A4
:10099000FB44C0F820A02046E1688847002874D0B6
:1009A000252806D0D4E901219047206A401C206206
:1009B000F1E700265F462046E16888472028054683
:1009C00007DB312D05D2781910F8200C08B1064349
:1009D000F1E7B00701D526F00406C4F81CA00027F3
:1009E000C4F818A02A2D09D028460CF0D9F938B33C
:1009F00004EB8708303DC8F8185019E059F8041B7B
:100A0000204604EB87029161E1688847012F054683
:100A100018D1E069002820DA26F020061DE0D8F879
:100A2000180000EB800005EB40003038C8F81800D3
:100A30002046E168884705460CF0B2F90028EED15F
:100A4000012F0AD02E2D08D12046E16888477F1C4F
:100A50000546022F46F02006C4DBA069002803DA11
:100A6000404246F00106A061F00701D026F01006D2
:100A70006C2D0BD0682D09D04C2D39D06A2D35D076
:100A8000742D35D07A2D33D016E038E0E1682F464A
:100A900020468847B842054609D16C2F26D04FF42E
:100AA0008060E168064320468847054604E06C2FD5
:100AB0001AD04FF4807006430DB3A5F141001928F8
:100AC00002D8203546F400664A462946204626606C
:100AD0004E46FFF7B5FB80B101280BD0F61D26F07E
:100AE000070000F1080956E74020E4E78020D8E736
:100AF0000020D6E706F104094DE7284652E7206AB0
:100B0000BDE8F09F00C8000000487047480300207F
:100B100030B5B0F10A0271F100034FEA900E4EEACF
:100B2000817EB0EB0E0061EB91014FEA101E4EEAA0
:100B3000017E10EB0E0041EB11114FEA102E4EEA30
:100B4000016E10EB0E0041EB11214FEA104E4EEA00
:100B5000014E10EB0E0041EB1141401841F1000134
:100B60004FEAD00040EA41704FEAD1014FEA8104D8
:100B700044EA907410EB800544EB01046D1944EBDA
:100B80000404521BA3414FF0000348BF0A3200D5B2
:100B900030BD401C41F1000130BD2DE9F0470D464C
:100BA00099469246044600F124080168880604D557
:100BB000E06921F01001216000E00120A84201DD80
:100BC000471B00E00027A1697A1902EB0900081A07
:100BD000A0612078C00602D42046FFF7E0FC002682
:100BE00008E0D4E901211AF806009047206A401C69
:100BF000761C20624E45F4DB2078C0060AD52046DC
:100C0000FFF7CDFC06E0D4E9012130209047206AAF
:100C1000401C2062381EA7F10107F4DC07E0D4E98C
:100C2000012118F805009047206A401C2062281E08
:100C3000A5F10105F3DC2046FFF7C7FC207800068C
:100C400002D50220BDE8F0870120FBE72DE9FF4F28
:100C50000C461E464FF0FF378BB0D2E90001DDF89D
:100C600060800A908A46C1F30A5505B93D460021C5
:100C700008464FF00000BAF1000F00F4400005DA1A
:100C800000EB80004FF4400101EA50004FEA905918
:100C9000B9F1010F00DDB9460A9850EA4A000ED0BA
:100CA00044F61050A5F2FF3545432F14B8F1000F5C
:100CB0001ED07542291E1EDDC9F100021CE0B8F1EC
:100CC000010F4FF0000001D0302103E0F24305E0B6
:100CD0002154401CB042FBDB30460022002121544D
:100CE0000B99C1F80880C1E900200FB0BDE8F08F72
:100CF000BD1B6D1CDEE74A4600DA694206A800F01B
:100D0000F7FB06AB93E8070003AB83E80700504608
:100D10000A990BF0F9F88DE80700A0F500501F388C
:100D200000900398002D0ADD42F21F014A46084454
:100D3000002303A9039068460BF062FB09E0A0F5CD
:100D400000504A461F38002303A9039068460BF061
:100D50006CFB8DE807000004000C03D04FF0FF305F
:100D6000410800E01046B8F1000F03D000220092C5
:100D700015461EE0751E05D4FFF7CAFE30326255D7
:100D80006D1EF9D5B3460122084302D000227F1C14
:100D900004E02078302801D100227F1E002A099724
:100DA00084D01DE0112D07DAFFF7B2FE3032625514
:100DB0006D1C50EA0102F5D1084302D00098C8B179
:100DC0000EE00021681E05E0235C625C635422543F
:100DD000401E491C8142F7DBAB46A81B401E099010
:100DE000002004F80B000B98099AC0F80880C0E9AD
:100DF000002B7AE711264FF0000857E72DE9F04F56
:100E000088460446D21D22F0070191B0D1E90001C5
:100E1000CDE90A010BF040FC02460B98C00F01D04F
:100E20002D2007E02068810701D52B2002E020213A
:100E300001EAC000032A099001D0072A05DB034616
:100E40004146204600F014FB0BE12078800601D5D6
:100E5000E06900E00620B8F1650F814606D0B8F1E0
:100E6000660F18D0B8F1670F70D131E00020B9F1EA
:100E7000110F009001DB112301E009F101030AAA1F
:100E800001A90CA8FFF7E2FEDDE90C70002609F1CC
:100E90000105834647E001204B4600904FF0004794
:100EA0000AAA01A90CA8FFF7D1FEDDE90DB00C9943
:100EB0005D46002610B909F101000D18B9EB0500D7
:100EC00003D4C0F1FF3609F10105A5EB09002BE0C1
:100ED000B9F1010F01DA4FF001090020B9F1110F4A
:100EE0000090484601DD112300E003460AAA01A94B
:100EF0000CA8FFF7ABFEDDE90C704D4600268346DB
:100F0000207800070AD4AB4500DA5D4601A8012D20
:100F100004DD411911F8011C302907D04F4502DAD0
:100F200017F1040F04DA012082460FE06D1EEEE790
:100F3000002F02DCED1B3E4403E0781CA84200DDDC
:100F40007D1CB81B00F1010A4FF000472078000714
:100F500003D4AA4501DB4FF0FF3A0021B7F1004F5F
:100F60000DF143088DF8431024D002202B23002FCD
:100F700001DA7F422D230A21021EA0F1010000DCCC
:100F80005FB197FBF1FC97FBF1F201FB1C7C17466C
:100F90000CF1300C08F801CDEEE7A8F10100037068
:100FA0002188090501D5452100E06521A0F101084E
:100FB00000F8011C09980FA9A1EB0807FF1D00B15B
:100FC0000120411901EBEA70A1693844081A401E5A
:100FD000A0612078C00602D42046FFF7E0FA099805
:100FE00028B1D4E901219047206A401C2062207872
:100FF000C00622D52046FFF7D2FA1EE0002E04DB01
:10100000B34502DD01A8805D00E03020D4E9012174
:101010009047206A401C2062761CAAF101005FEA1A
:10102000000A0AD100F020FAC0680168405CD4E9E7
:1010300001219047206A401C2062281EA5F101056D
:10104000DCDC07E0D4E9012118F8010B9047206AA5
:10105000401C2062381EA7F10107F3DC2046FFF791
:10106000B4FA032011B041E62DE9F04F04460D46D5
:10107000D21D22F0070089B0D0E9009748463946D2
:101080000BF00AFB0246F80F01D02D2307E0206881
:10109000810701D52B2302E0202101EAC0038DF84E
:1010A00020300BB1012000E00020032A824601D04D
:1010B000072A04DB2946204600F0DAF93FE12078D0
:1010C000800601D40D2500E0E569C7F30A560D2D11
:1010D00049DA00214FEA175B08464FF00000002F65
:1010E00000F4400007DA00EB80004FF4400100EB11
:1010F000D07001EA60008115012901DD4FF0FF3158
:1011000000224FEA850CBCF1180F06D31346ACF150
:1011100018004FF08052C24003E04FF4801323FACE
:101120000CF30CF10C0CBCF1200F04D3ACF1200C2F
:1011300009FA0CF001E007FA0CF000294FF0004822
:1011400001DD18B90FE00ED140450CD319EB0209AF
:101150005F4121B9404502D19F4329EA0209BBEB17
:10116000175F00D0761C2088000502D57B487844A4
:1011700002E07A487844193808AA302302F80A3085
:10118000037C0AF10101002E0AF1020A53546A4657
:1011900002DC4FF0300101E04FF031014FF0010867
:1011A0008DF8001002D0A6F2FF3603E059EA47019D
:1011B00000D06B4E002D02DC2178090704D54FF0DA
:1011C00002082E218DF80110C44600210BE0C7F360
:1011D00003433F01C35C491C6D1E02F8083005291A
:1011E00008F1010801DA002DF1DC00210CE000EB30
:1011F0001973491C1B786D1E082902F808304FEA44
:10120000091908F1010801DA002DF0DC21688B06CC
:1012100002D516E0A8F10108E04505DD02EB080360
:1012200013F8013C302BF5D0B8F1000F09DD02EBCB
:10123000080313F8013C2E2B03D1090701D4A8F1B0
:101240000108002D05DD3E2102F808106D1E08F191
:101250000108407C002E02F8080008F1010804DAB9
:101260002D20764202F8080002E02B2002F8080048
:101270000A214FF47A70864208F101080BDB96FBD5
:10128000F0F3303302F8083096FBF0F308F1010870
:1012900000FB136601E0642E0CDB642096FBF0F388
:1012A000303302F8083096FBF0F308F1010800FB38
:1012B000136601E00A2E06DB96FBF1F0303002F8EF
:1012C000080008F1010896FBF1F001FB10603030D6
:1012D00002F80800A16908F1010808EB050202EB19
:1012E0000A00081AA0612078C00602D42046FFF741
:1012F00056F9216A08AE01EB0A00206204E0D4E945
:10130000012116F8010B9047BAF1010AF7D22078B3
:10131000C00602D52046FFF742F96E4609E016F8EE
:10132000010B3E280FD0D4E901219047206A401CD0
:101330002062B8F10108F2D22046FFF746F909B061
:101340000320BDE8F08F206A2844206203E0D4E93E
:101350000121302090476D1EEBD3F8E746C0000016
:1013600002FCFFFF10B5436913B1AFF3008001E049
:10137000FFF74EF9012010BD127800F124010A7028
:1013800000224A700122EDE711684FF0FF32E9E7D1
:1013900010B5436913B1AFF3008001E0FFF7D2F954
:1013A000012010BD128800F1240182840022C28431
:1013B0000122EDE711684FF0FF32E9E72DE9F04136
:1013C00016460C46054600F047F8036893F80101FD
:1013D000012807D0FF2C12D8185D80B101202C7095
:1013E000BDE8F081D3F807013246214603F2071326
:1013F000C7182846BC46BDE8F041002360474FF0BF
:10140000FF30EDE700487047480300207546FFF7BE
:10141000F9FFAE4605006946534620F007008546B1
:1014200018B020B5FEF788FFBDE820404FF0000659
:101430004FF000074FF000084FF0000BAC46ACE84F
:10144000C009ACE8C009ACE8C009ACE8C00921F0AB
:1014500007018D467047000010B500F005F8001D2B
:1014600010BD00BF79B90000004870476803002034
:101470002DE9F0411F46044603260168072A01F4BE
:10148000006004DB08B116A505E016A503E008B16D
:1014900015A500E015A521F010002060A069C01E70
:1014A000A0610FB1401EA0612046FFF778F84FB150
:1014B000D4E9012138469047206A401C2062C01CB4
:1014C000206206E0206AFAE7D4E9012115F8010B51
:1014D0009047761EF8D22046FFF777F8BDE8F081F6
:1014E0004E414E006E616E00494E4600696E6600C8
:1014F0002DE9F047814616468AB0354878440DC834
:101500008DE80D0032487844801C03AC0DC884E897
:101510000D0041F69B300844372190FBF1F290FB1F
:10152000F1F5A5F1800501FB12041B3C02D56442D4
:10153000012000E00020DFF898A080460027FA4450
:10154000AAF1BE0A0EE0E0070AD03246684607EB71
:10155000470101230AEB81010AF067FF8DE80700CC
:1015600064107F1C002CEED1194F7F44AE3F19E070
:10157000E80715D007EB04100DF1180A90E80E00EB
:101580008AE80E00C068F04201D1981908903246EE
:10159000012306A903A80AF048FF03AB83E807006C
:1015A0006D10641C002DE3D14FF0010332466946F3
:1015B000B8F1000F03A802D00AF022FF01E00AF000
:1015C00034FFC9E90001C9F808200AB0BDE8F08776
:1015D00048BD000010B50446AFF300802046BDE8CA
:1015E0001040FEF794BE000001491820ABBEFEE794
:1015F0002600020070470000FFE7FEE780B541F6D5
:10160000D430C2F2000000F09DFB80BD80B541F6F1
:10161000D430C2F2000000F095FB80BD80B541F6E9
:10162000D430C2F2000000F08DFB80BD80B541F6E1
:10163000D430C2F2000000F085FB80BD80B541F6D9
:10164000FC30C2F2000000F07DFB80BD80B541F6A9
:10165000FC30C2F2000000F075FB80BD80B541F6A1
:10166000FC30C2F2000000F06DFB80BD80B541F699
:10167000FC30C2F2000000F065FB80BD80B541F691
:101680002440C2F2000001F019F980BD82B001903F
:101690000198007810384AF6AB21CAF6AA21A0FBBF
:1016A00001100009009000994DF27820C0F600006A
:1016B000405C0199C8650098042807D3FFE70199A9
:1016C0000868042262F30900886506E00199086849
:1016D00040F2FF3290438865FFE70198806D02B0C9
:1016E0007047000086B0059000208DF81300059823
:1016F000806A03900598806910BBFFE70398029009
:1017000003281BD80299DFE801F0020D02180598A2
:1017100090F82F00C00720B1FFE701208DF81300DB
:10172000FFE70CE00598C06AB0F1C07F04D1FFE785
:1017300001208DF81300FFE701E000E0FFE745E03E
:1017400005988069B0F5005F25D1FFE70398019007
:1017500003281ED80199DFE801F0020602110120DA
:101760008DF8130016E0059890F82F00C00720B1FF
:10177000FFE701208DF81300FFE70BE00598C06A32
:10178000B0F1C07F04D1FFE701208DF81300FFE71F
:1017900000E0FFE719E003980090032804D3FFE777
:1017A0000098032804D00EE001208DF813000BE010
:1017B000059890F82F00C00720B1FFE701208DF8B1
:1017C0001300FFE700E0FFE7FFE7FFE79DF81300E6
:1017D00006B0704784B00390029101920093039881
:1017E0000168086820F4802008600098039909685F
:1017F000486003988068402809D1FFE70198039961
:1018000009688860029803990968C86008E002982E
:10181000039909688860019803990968C860FFE71F
:1018200004B070477047000072B6FFE7FEE70000A3
:1018300088B00690059104920393069890F82000D2
:101840008DF8070006980068806800900598806809
:1018500008B9FFE700E0FFE79DF80700012806D080
:10186000FFE79DF80700022840F08080FFE79DF821
:101870000300400700280CD4FFE79DF80300000791
:10188000002806D4FFE79DF80300C006002864D5B1
:10189000FFE70098C0F301600290029901208840A0
:1018A000039908600598806868B9FFE705980168A2
:1018B000C06840EA415006990968029A01EB02119A
:1018C000C1F880010EE005994A688868C96840EA55
:1018D000C200084306990968029A01EB0211C1F897
:1018E0008001FFE70598006906990968029A01EBF3
:1018F0000211C1F884010598007D01280CD1FFE791
:1019000006980068029900EB0111D1F8840140F4B7
:101910008070C1F88401FFE704984068069909685F
:10192000029A01EB0211C1F88C0104980068069933
:101930000968029A01EB0211C1F888010698006853
:10194000029900EB0111D1F8800140F00100C1F8CB
:10195000800100208DF81F0011E00699486A40F4CC
:101960000010486201208DF81F0008E00699486ABF
:1019700040F48020486201208DF81F00FFE79DF8A9
:101980001F0008B07047000086B0049003910498CF
:1019900090F820008DF803009DF80300012806D080
:1019A000FFE79DF80300022840F0B080FFE746F211
:1019B0000040C4F2000001900199D1F8000240F00B
:1019C0000100C1F800020199D1F8000220F47C5016
:1019D000C1F800020398426A0199D1F8000240EA76
:1019E0000220C1F800020398406900F01F010120A5
:1019F00088400290029A0199D1F81C029043C1F8E4
:101A00001C020398C069F0B9FFE7029A0199D1F866
:101A10000C029043C1F80C02039A9088D168526975
:101A200040EA0140019901EBC201C1F84002039A6A
:101A300010889168526940EA0140019901EBC201A6
:101A4000C1F84402FFE70398C06901281ED1FFE7EF
:101A5000029A0199D1F80C021043C1F80C02039AC2
:101A600090881168526940EA0140019901EBC20176
:101A7000C1F84002039A90899168526940EA014096
:101A8000019901EBC201C1F84402FFE703988069A4
:101A900040B9FFE7029A0199D1F804029043C1F8D6
:101AA000040207E0029A0199D1F804021043C1F838
:101AB0000402FFE70398006940B9FFE7029A019921
:101AC000D1F814029043C1F8140207E0029A019978
:101AD000D1F814021043C1F81402FFE70398006A1A
:101AE000012808D1FFE7029A0199D1F81C0210439E
:101AF000C1F81C02FFE70199D1F8000220F00100B3
:101B0000C1F8000200208DF8170008E00499486A27
:101B100040F48020486201208DF81700FFE79DF80F
:101B2000170006B07047000081B0009001B0704708
:101B300086B00490039102920193049890F82000DB
:101B40008DF803009DF80300012806D0FFE79DF8FB
:101B50000300022840F0E880FFE7039880B9FFE720
:101B600004980068C068800748B9FFE70499486A8C
:101B700040F40010486201208DF81700DDE00FE00E
:101B8000049800680069800748B9FFE70499486A2B
:101B900040F40010486201208DF81700CDE0FFE707
:101BA00004980068039900EB0110D0F8B00100F030
:101BB0000400029988600298806858B9FFE7049889
:101BC0000068039900EB0110D0F8B001400D0299B4
:101BD00008600AE004980068039900EB0110D0F84F
:101BE000B001C00802994860FFE7049800680399B3
:101BF00000EB0110D0F8B00100F002000299C860BB
:101C000004980068039900EB0110D0F8B40100F0CB
:101C10000F00082804D3FFE70299082008610BE0B1
:101C200004980068039900EB0110D0F8B40100F0AB
:101C30000F0002990861FFE704980068039900EB20
:101C40000110D0F8B40180B2000A029988610498AA
:101C50000068039900EB0110D0F8B401000C029960
:101C6000486104980068039900EB0110D0F8B801AE
:101C70000199087004980068039900EB0110D0F8EE
:101C8000B801000A0199487004980068039900EBB4
:101C90000110D0F8B801000C019988700498006810
:101CA000039900EB0110D0F8B801000E0199C8703B
:101CB00004980068039900EB0110D0F8BC01019969
:101CC000087104980068039900EB0110D0F8BC017A
:101CD000000A0199487104980068039900EB01100B
:101CE000D0F8BC01000C0199887104980068039930
:101CF00000EB0110D0F8BC01000E0199C8710398E7
:101D000038B9FFE704980168C86840F02000C8604F
:101D100006E004980168086940F020000861FFE7C8
:101D200000208DF8170008E00499486A40F48020EC
:101D3000486201208DF81700FFE79DF8170006B0F4
:101D40007047000080B58AB009900020089009987B
:101D500000684069079009980068406806900998F3
:101D600000688068059009980068C0680490099828
:101D700000680069039009980068806902909DF8E6
:101D80001C00C007002800F09480FFE79DF81400B5
:101D9000C00758B3FFE709980168012088609DF8E3
:101DA00014008007002804D5FFE7099800F07CFCA8
:101DB0001BE09DF814004007002805D5FFE70898B0
:101DC00040F4006008900FE09DF814000007002820
:101DD00005D5FFE7089840F48050089003E0099883
:101DE00000F05EFCFFE7FFE7FFE7FFE79DF8150067
:101DF000C00760B3FFE7099801684FF480708860FE
:101E00009DF815008007002804D5FFE7099800F029
:101E100053FC1BE09DF815004007002805D5FFE79F
:101E2000089840F4005008900FE09DF81500000756
:101E3000002805D5FFE7089840F48040089003E0AB
:101E4000099800F035FCFFE7FFE7FFE7FFE79DF8A3
:101E50001600C00760B3FFE7099801684FF48030AF
:101E600088609DF816008007002804D5FFE70998D0
:101E700000F02AFC1BE09DF816004007002805D55D
:101E8000FFE7089840F4004008900FE09DF8160026
:101E90000007002805D5FFE7089840F48030089037
:101EA00003E0099800F00CFCFFE7FFE7FFE7FFE71E
:101EB000FFE79DF81C000007002810D5FFE79DF8FC
:101EC0001000C006002809D5FFE7089840F400700C
:101ED0000890099801681020C860FFE7FFE79DF8A7
:101EE0001C00400700280FD5FFE79DF810000007F1
:101EF000002808D5FFE7099801680820C8600998FC
:101F000000F004FBFFE7FFE79DF81C0080070028B6
:101F10000BD5FFE709980068C068800720B1FFE78C
:101F2000099800F0F7FAFFE7FFE79DF81C0040066C
:101F3000002810D5FFE79DF80C00C006002809D541
:101F4000FFE7089840F48060089009980168102025
:101F50000861FFE7FFE79DF81C00800600280FD509
:101F6000FFE79DF80C000007002808D5FFE7099857
:101F7000016808200861099800F008FBFFE7FFE707
:101F80009DF81C00C00600280BD5FFE709980068E3
:101F90000069800720B1FFE7099800F0FBFAFFE72E
:101FA000FFE79DF81E00800700280FD5FFE79DF88A
:101FB0001800C006002808D5FFE70998016810201E
:101FC0004860099800F022FBFFE7FFE79DF81E003C
:101FD000C00778B1FFE79DF818000007002808D572
:101FE000FFE70998016808204860099800F070FB35
:101FF000FFE7FFE79DF81D000006002840F18D80F7
:10200000FFE79DF818004007002840F18180FFE7B6
:102010009DF81D00C00750B1FFE79DF80800C007FC
:1020200028B1FFE7089840F001000890FFE79DF80D
:102030001D00800700280BD5FFE79DF808008007EA
:10204000002805D5FFE7089840F002000890FFE758
:102050009DF81D00400700280BD5FFE79DF80800FC
:102060004007002805D5FFE7089840F004000890D5
:10207000FFE79DF81D000007002848D5FFE79DF801
:10208000080010F0700F42D0FFE7029800F07000D7
:1020900001460191102814D0FFE70198202815D09F
:1020A000FFE70198302816D0FFE70198402817D0A5
:1020B000FFE70198502818D0FFE70198602819D051
:1020C0001DE0089840F00800089019E0089840F0DA
:1020D0001000089014E0089840F0200008900FE0ED
:1020E000089840F0400008900AE0089840F080000E
:1020F000089005E0089840F48070089000E0FFE741
:1021000009980168886920F070008861FFE7FFE79F
:102110000998016804204860FFE7089848B1FFE784
:10212000089A0999486A104348620998FFF7FCFC2D
:10213000FFE70AB080BD000080B584B0029002982D
:1021400020B9FFE701208DF80F00E0E0029890F839
:10215000200020B9FFE7029800F0DEF8FFE70298C0
:102160000168086840F00100086001F0C9F90190B9
:10217000FFE7029800684068C007A8B9FFE701F0D0
:10218000BFF90199401A0B280DD3FFE70299486A5D
:1021900040F4003048620299052081F820000120B7
:1021A0008DF80F00B3E0E4E702980168086820F0BA
:1021B0000200086001F0A4F90190FFE702980068AE
:1021C00040688007002815D5FFE701F099F90199CB
:1021D000401A0B280DD3FFE70299486A40F40030FB
:1021E00048620299052081F8200001208DF80F0037
:1021F0008DE0E3E70298007E012807D1FFE702980F
:102200000168086840F08000086006E002980168F4
:10221000086820F080000860FFE70298407E0128EF
:1022200007D1FFE702980168086840F040000860A5
:1022300006E002980168086820F040000860FFE7A7
:102240000298807E012807D1FFE70298016808689C
:1022500040F02000086006E002980168086820F05D
:1022600020000860FFE70298C07E012807D1FFE741
:1022700002980168086820F01000086006E00298E3
:102280000168086840F010000860FFE70298007FCE
:10229000012807D1FFE702980168086840F00800AC
:1022A000086006E002980168086820F008000860ED
:1022B000FFE70298407F012807D1FFE702980168F5
:1022C000086840F00400086006E0029801680868A9
:1022D00020F004000860FFE7029B19685A689868BC
:1022E000D3F80CC040EA0C00D3F810C040EA0C0050
:1022F0005B691843013A1043C861029900204862A3
:10230000029A012182F820108DF80F00FFE79DF856
:102310000F0004B080BD000080B596B0159000207D
:10232000149013901290119010901598006846F236
:102330000041C4F20001884264D1FFE740F26840E6
:10234000C2F200000168013101600068012812D169
:10235000FFE7FFE700200F9043F64000C4F20200C1
:10236000016841F000710160006800F000700F909A
:102370000F98FFE7FFE7FFE700200E9043F63000DD
:10238000C4F20200016841F008010160006800F039
:1023900008000E900E98FFE7032010900221119183
:1023A00000210991129113900920149040F60040E9
:1023B000C4F2020010A900F07BFE099A13200690D7
:1023C000114601F051F9069801F044F9099A1420D8
:1023D0000790114601F048F9079801F03BF9099A76
:1023E00015200890114601F03FF9089801F032F9E4
:1023F000099A16200A90114601F036F90A9801F060
:1024000029F980E01598006846F60001C4F2000141
:10241000884277D1FFE7FFE700200D9043F64000A8
:10242000C4F20200016841F080610160006800F0C0
:1024300080600D900D98FFE740F26840C2F2000006
:102440000168013101600068012812D1FFE7FFE750
:1024500000200C9043F64000C4F20200016841F0F5
:1024600000710160006800F000700C900C98FFE7AC
:10247000FFE7FFE700200B9043F63000C4F20200B4
:10248000016841F002010160006800F002000B9059
:102490000B98FFE74FF4405010900220119000205D
:1024A00004901290032013900920149040F20040F1
:1024B000C4F2020010A900F0FBFD049A3F20019035
:1024C000114601F0D1F8019801F0C4F8049A4020B7
:1024D0000290114601F0C8F8029801F0BBF8049A86
:1024E00041200390114601F0BFF8039801F0B2F8C3
:1024F000049A42200590114601F0B6F8059801F0C3
:10250000A9F8FFE7FFE716B080BD000081B000909A
:1025100001B0704780B586B005900598006846F216
:102520000041C4F20001884212D1FFE7059840F251
:10253000C031C2F2000103910A1D049201F120038F
:102540000021FFF7F5FA03990498896A88471BE090
:102550000598006846F60001C4F20001884212D1D5
:10256000FFE7059840F20441C2F2000101910A1D03
:10257000029201F120030021FFF7DAFA0199029893
:10258000896A8847FFE7FFE706B080BD81B0009009
:1025900001B0704780B586B005900598006846F296
:1025A0000041C4F20001884212D1FFE7059840F2D1
:1025B000C031C2F2000103910A1D049201F120030F
:1025C0000121FFF7B5FA03990498896A88471BE04F
:1025D0000598006846F60001C4F20001884212D155
:1025E000FFE7059840F20441C2F2000101910A1D83
:1025F000029201F120030121FFF79AFA0199029852
:10260000896A8847FFE7FFE706B080BD81B0009088
:1026100001B0704780B584B00290029890F8200015
:1026200001282FD1FFE70299022081F820000298AB
:102630000168086820F00100086000F061FF019067
:10264000FFE7029800684068C007A8B1FFE700F004
:1026500057FF0199401A0B280DD3FFE70299486AEA
:1026600040F4003048620299052081F820000120E2
:102670008DF80F000FE0E4E70299002048628DF822
:102680000F0008E00299486A40F4002048620120E7
:102690008DF80F00FFE79DF80F0004B080BD00002B
:1026A00081B0009001B0704781B0009001B07047D8
:1026B00081B0009001B0704781B0009001B07047C8
:1026C00081B0009001B0704781B0009001B07047B8
:1026D00081B0009001B0704780B584B0029002983C
:1026E000806D019000F00CFF0090029890F835008A
:1026F00002280DD0FFE7029980204865FFE7029984
:10270000002081F83400FFE701208DF80F0055E02C
:1027100002980168086820F01600086002980168B5
:10272000486920F0800048610298006C20B9FFE7FA
:102730000298806C38B1FFE702980168086820F0C1
:1027400008000860FFE702980168086820F00100AF
:102750000860FFE7029800680068C007C8B1FFE79B
:1027600000F0CEFE0099401A062811D3FFE7029927
:10277000202048650299032081F83500FFE702997F
:10278000002081F83400FFE703208DF80F0015E0EA
:10279000E0E70298C16D3F20884001998860029966
:1027A000012081F83500FFE70299002081F834000C
:1027B000FFE7FFE700208DF80F00FFE79DF80F000F
:1027C00004B080BD82B00090009890F835000228D7
:1027D00007D0FFE700998020486501208DF80700A9
:1027E0000EE00099052081F835000098016808681E
:1027F00020F001000860FFE700208DF80700FFE7E8
:102800009DF8070002B0704780B584B0029002982E
:1028100020B9FFE701208DF80F004BE0029890F8F7
:102820003500022804D1FFE702208DF80F0041E0B7
:1028300002980168086820F00100086002980168A9
:1028400000200090086002990968486002990968B0
:10285000886002990968C86002990968086102984D
:102860000168212048610298FEF710FF0146009898
:1028700001910299C8630299086402994864029917
:1028800088640299C864029908650299CA6D3F215B
:102890009140019A916002994865029981F835004A
:1028A000FFE70299002081F83400FFE700208DF84F
:1028B0000F00FFE79DF80F0004B080BD80B586B023
:1028C00005900020039040F21000C2F20000006862
:1028D00048F2B511C1F64E31A0FB0110800A0290FA
:1028E0000598806D019001980068049004980599FE
:1028F000C96DC840000700281AD5FFE70598006891
:1029000000684007002812D5FFE7059801680868AD
:1029100020F0040008600598C16D082088400199E6
:1029200088600599486D40F001004865FFE7FFE7C2
:1029300004980599C96DC840C007A0B1FFE7059884
:1029400000684069000600280CD5FFE70598C16DB6
:1029500001208840019988600599486D40F0020087
:102960004865FFE7FFE704980599C96DC84040072F
:10297000002814D5FFE70598006800688007002844
:102980000CD5FFE70598C16D042088400199886047
:102990000599486D40F004004865FFE7FFE704989B
:1029A0000599C96DC840C006002847D5FFE70598BE
:1029B00000680068000700283FD5FFE70598C16D53
:1029C00010208840019988600598006800684003DD
:1029D00000281AD5FFE70598006800680003002862
:1029E00009D4FFE70598006C20B1FFE70598016C5A
:1029F0008847FFE708E00598806C20B1FFE705985D
:102A0000816C8847FFE7FFE716E0059800680068DB
:102A1000C005002807D4FFE705980168086820F082
:102A200008000860FFE70598006C20B1FFE70598F3
:102A3000016C8847FFE7FFE7FFE7FFE70498059988
:102A4000C96DC8408006002840F18D80FFE70598D9
:102A500000680068C006002840F18480FFE7059800
:102A6000C16D2020884001998860059890F8350054
:102A7000052834D1FFE705980168086820F01600A2
:102A8000086005980168486920F080004861059851
:102A9000006C20B9FFE70598806C38B1FFE7059816
:102AA0000168086820F008000860FFE70598C16D1C
:102AB0003F208840019988600599012081F8350000
:102AC000FFE70599002081F83400FFE70598006DC5
:102AD00020B1FFE70598016D8847FFE77BE0059887
:102AE00000680068400300281AD5FFE705980068D1
:102AF00000680003002809D4FFE70598406C20B166
:102B0000FFE70598416C8847FFE708E00598C06B30
:102B100020B1FFE70598C16B8847FFE7FFE720E09A
:102B2000059800680068C005002811D4FFE70598E3
:102B30000168086820F0100008600599012081F8FC
:102B40003500FFE70599002081F83400FFE7FFE733
:102B50000598C06B20B1FFE70598C16B8847FFE778
:102B6000FFE7FFE7FFE70598406DA0B3FFE7059893
:102B7000406DC00730B3FFE70599052081F83500A7
:102B800005980168086820F001000860FFE70398D5
:102B9000013003900299884201D9FFE707E0FFE77F
:102BA000059800680068C0070028F0D1FFE7059984
:102BB000012081F83500FFE70599002081F83400F5
:102BC000FFE7FFE70598C06C20B1FFE70598C16CEF
:102BD0008847FFE7FFE706B080BD000080B586B0FC
:102BE00004900020039000F08BFC0290049820B920
:102BF000FFE701208DF81700A3E00498406A08B1B0
:102C0000FFE7FFE70499022081F83500FFE7049908
:102C1000002081F83400FFE704980168086820F07C
:102C200001000860FFE7049800680068C00790B1E1
:102C3000FFE700F065FC0299401A06280AD3FFE777
:102C40000499202048650499032081F835008DF807
:102C5000170076E0E7E7049800680068039003989F
:102C600048F23F01CFF2100108400390049900910F
:102C70004868D1F808C0CB680A6940EA0C001843DC
:102C800010434A6910438A691043CA691043096AAC
:102C900001430398084303900498406A042808D12C
:102CA000FFE70499C86A096B01430398084303903E
:102CB000FFE7039804990968086004980068406970
:102CC0000390039820F0070003900498416A03984A
:102CD000084303900498406A04281AD1FFE7049837
:102CE000816A0398084303900498C06A80B1FFE7A3
:102CF0000498FEF7F7FC50B1FFE7049940204865BF
:102D00000499012081F835008DF8170019E0FFE7DC
:102D1000FFE703980499096848610498FEF7B6FC38
:102D200001900498C16D3F20884001998860049902
:102D300000204865049A012182F835108DF81700AB
:102D4000FFE79DF8170006B080BD000080B588B091
:102D5000069005910492039300208DF80B000698CD
:102D6000806D0190FFE7069890F83400012804D1A7
:102D7000FFE702208DF81F0045E00699012081F849
:102D80003400FFE7FFE7069890F8350001282BD1C3
:102D9000FFE70699022081F8350006990020486572
:102DA00006980599049A039BFEF714FD0698C16DD9
:102DB0003F2088400199886006980168086840F0C3
:102DC000160008600698006C38B1FFE706980168A5
:102DD000086840F008000860FFE706980168086886
:102DE00040F00100086009E0FFE70699002081F843
:102DF0003400FFE702208DF80B00FFE79DF80B0081
:102E00008DF81F00FFE79DF81F0008B080BD00008F
:102E100080B584B0039000F073FB0290039801909A
:102E20000198013048B1FFE740F23C30C2F20000A7
:102E30000178019808440190FFE7FFE700F060FB8C
:102E40000299401A0199884201D2FFE7F6E704B0DF
:102E500080BD000090B00F900E9100200C900B9060
:102E60000A900D90FFE70D980F2800F21F81FFE7F1
:102E70000D99012088400C900E980C9908400B90F9
:102E80000B980C99884240F00C81FFE70D9820F0D8
:102E9000030043F60801C4F2010140580A900D985E
:102EA00000F0030081000F2000FA01F10A980840A9
:102EB0000A900A9809900F980021C4F202018842F2
:102EC00003D1FFE7002008907AE00F9840F200411C
:102ED000C4F20201884203D1FFE7012007906CE0B1
:102EE0000F9840F60001C4F20201884203D1FFE7C7
:102EF000022006905EE00F9840F60041C4F2020105
:102F0000884203D1FFE70320059050E00F9841F27B
:102F10000001C4F20201884203D1FFE704200490BB
:102F200042E00F9841F20041C4F20201884203D10D
:102F3000FFE70520039034E00F9841F60001C4F24A
:102F40000201884203D1FFE70620029026E00F9895
:102F500041F60041C4F20201884203D1FFE7072095
:102F6000019018E00F9842F20001C4F20201884279
:102F700003D1FFE7082000900AE00F9942F20042D7
:102F8000C4F202020A20914208BF09200090FFE724
:102F900000980190FFE701980290FFE702980390E4
:102FA000FFE703980490FFE704980590FFE7059872
:102FB0000690FFE706980790FFE707980890FFE75D
:102FC00009980899C9B20D9A02F003029200914043
:102FD000884233D1FFE70B9A43F60041C4F2010166
:102FE0000868904308600B9A43F60441C4F201015B
:102FF0000868904308600B9A43F60C41C4F2010143
:103000000868904308600B9A43F60841C4F2010136
:103010000868904308600D9800F0030081000F20BD
:1030200088400A900A9B0D9820F0030143F608029D
:10303000C4F20102885898438850FFE70D98410078
:10304000032000FA01F30F9A116899431160DDF82B
:1030500034C00CF007018A000F2101FA02F30F9926
:103060006FF0030202EA5C020A44116A994311629A
:103070000D99490000FA01F30F9AD1689943D16084
:103080000D9A012101FA02F30F9A51689943516098
:103090000D99490000FA01F20F9988689043886001
:1030A000FFE7FFE70D9801300D90DCE610B07047A8
:1030B00090B00F900E9100200C900B900A900D9004
:1030C000FFE70D980F2800F2E881FFE70D99012036
:1030D00088400C900E9800680C9908400B900B9853
:1030E0000C99884240F0D481FFE70E98406800F0C8
:1030F0000300012807D0FFE70E98406800F00300A6
:1031000002282FD1FFE70F9880680A900D984100A0
:10311000032000FA01F10A9888430A900E98C068CB
:103120000D99490000FA01F10A9808430A900A989B
:103130000F9988600F9840680A900D99012000FA55
:1031400001F10A9888430A900E984068C0F3001075
:103150000D9900FA01F10A9808430A900A980F990C
:103160004860FFE70E98406800F00300032818D07D
:10317000FFE70F98C0680A900D984100032000FAFD
:1031800001F10A9888430A900E9880680D994900C9
:1031900000FA01F10A9808430A900A980F99C8604A
:1031A000FFE70E98406800F00300022826D1FFE7F1
:1031B0000F980D996FF0030202EA51010844006A6A
:1031C0000A900D9800F0070081000F2000FA01F12D
:1031D0000A9888430A900E9800690D9901F007013A
:1031E000890000FA01F10A9808430A900A980F9999
:1031F0000D9B02EA530211440862FFE70F98006832
:103200000A900D984100032000FA01F10A988843C2
:103210000A900E98406800F003000D99490000FAEA
:1032200001F10A9808430A900A980F9908600E98CD
:1032300080798007002800F02A81FFE7FFE700205F
:10324000099043F64400C4F20200016841F4804151
:103250000160006800F4804009900998FFE70D982C
:1032600020F0030043F60801C4F2010140580A901F
:103270000D9800F0030081000F2000FA01F10A9878
:1032800088430A900F980021C4F20201884203D1BA
:10329000FFE7002008907AE00F9840F20041C4F266
:1032A0000201884203D1FFE7012007906CE00F98EC
:1032B00040F60001C4F20201884203D1FFE7022078
:1032C00006905EE00F9840F60041C4F20201884289
:1032D00003D1FFE70320059050E00F9841F2000171
:1032E000C4F20201884203D1FFE70420049042E0C7
:1032F0000F9841F20041C4F20201884203D1FFE776
:103300000520039034E00F9841F60001C4F2020159
:10331000884203D1FFE70620029026E00F9841F68D
:103320000041C4F20201884203D1FFE70720019067
:1033300018E00F9842F20001C4F20201884203D162
:10334000FFE7082000900AE00F9942F20042C4F221
:1033500002020A20914208BF09200090FFE700986E
:103360000190FFE701980290FFE702980390FFE7C2
:1033700003980490FFE704980590FFE705980690EE
:10338000FFE706980790FFE707980890FFE708987F
:10339000C0B20D9901F00301890000FA01F10A9809
:1033A00008430A900A980D9921F0030143F6080298
:1033B000C4F20102885043F60840C4F201000068DC
:1033C0000A900B990A9888430A900E988079C00653
:1033D000002805D5FFE70B990A9808430A90FFE7F4
:1033E0000A9843F60841C4F20101086043F60C4014
:1033F000C4F2010000680A900B990A9888430A9069
:103400000E9880798006002805D5FFE70B990A9869
:1034100008430A90FFE70A9843F60C41C4F2010101
:10342000086043F60440C4F2010000680A900B995A
:103430000A9888430A900E9880798007002805D55D
:10344000FFE70B990A9808430A90FFE70A9843F6AA
:103450000441C4F20101086043F60040C4F20100D7
:1034600000680A900B990A9888430A900E98807910
:10347000C00728B1FFE70B990A9808430A90FFE7B5
:103480000A9843F60041C4F201010860FFE7FFE734
:10349000FFE70D9801300D9013E610B07047000063
:1034A00082B00190ADF8021001980069BDF80210D9
:1034B000084204D0FFE701208DF8010003E000205E
:1034C0008DF80100FFE79DF8010002B07047000091
:1034D00082B00190ADF802108DF801209DF8010036
:1034E00028B1FFE7BDF802000199886105E0BDF849
:1034F0000200000401998861FFE702B070470000F4
:1035000042F22470C2F200000068704747F61020B3
:10351000C1F6FF700068704747F61420C1F6FF70CF
:103520000068704747F61820C1F6FF7000687047C2
:1035300040F23C30C2F20000027842F22471C2F242
:1035400000010868104408607047000080B543F629
:103550000041C4F20201086840F400700860086885
:1035600040F480600860086840F4807008600320C0
:1035700000F094F80F2000F005F800F03BF8002070
:1035800080BD000080B582B0009040F21000C2F211
:103590000000006840F23C31C2F200010A784FF4AA
:1035A0007A71B1FBF2F1B0FBF1F000F00FFE20B147
:1035B000FFE701208DF8070018E000980F280DD8CC
:1035C000FFE700994FF0FF30002200F04DF800981F
:1035D00040F24031C2F20001086003E001208DF8A2
:1035E000070003E000208DF80700FFE79DF80700C3
:1035F00002B080BD82B0FFE70020019043F6440096
:10360000C4F20200016841F480410160006800F4E6
:10361000804001900198FFE7FFE70020009043F60B
:103620004000C4F20200016841F08051016000686E
:1036300000F0805000900098FFE702B07047000053
:1036400080B582B08DF807009DF9070007F038FCBF
:1036500002B080BD80B582B08DF807009DF90700EB
:1036600007F04AFC02B080BD80B586B08DF8170027
:10367000049103920020029007F056FC02909DF9FD
:103680001700019002980499039A02F003F9014689
:10369000019807F051FC06B080BD000080B582B0F3
:1036A0000190019807F06AFC02B080BD80B584B03B
:1036B00000200290FFE70020019043F64000C4F292
:1036C0000200016841F080510160006800F0805004
:1036D00001900198FFE74021C4F20E21012008600B
:1036E000FFF70EFF0290FFE747F20400C4F200006C
:1036F000006800F48030B0F5803F0DD0FFE7FFF7A1
:10370000FFFE0299401AB0F57A7F04D9FFE7032043
:103710008DF80F0025E0E7E74421C4F20E210120D7
:103720000860FFF7EDFE0290FFE747F20400C4F2E5
:103730000000006800F40030B0F5003F0DD0FFE756
:10374000FFF7DEFE0299401AB0F57A7F04D9FFE751
:1037500003208DF80F0004E0E7E700208DF80F004C
:10376000FFE79DF80F0004B080BD000080B584B075
:1037700002900191029820B9FFE701208DF80F0017
:1037800021E1019843F60041C4F20201096801F009
:103790000F01884212D9FFE7019943F60040C4F2B5
:1037A00002000170006800F00F000199884204D007
:1037B000FFE701208DF80F0005E1FFE70298007890
:1037C000800700282AD5FFE70298007840070028E4
:1037D00009D5FFE743F60801C4F20201086840F486
:1037E000E0500860FFE7029800780007002809D53C
:1037F000FFE743F60801C4F20201086840F46040A4
:103800000860FFE743F60801C4F20201086820F0EF
:10381000F000029A926810430860FFE7029800786F
:10382000C00700286ED0FFE702984068012811D138
:10383000FFE743F60000C4F20200006800F4003124
:103840000020B0EB514F04D1FFE701208DF80F00AD
:10385000B9E02CE002984068022805D0FFE7029802
:103860004068032811D1FFE743F60000C4F20200CC
:10387000006800F000710020B0EB516F04D1FFE749
:1038800001208DF80F009EE010E043F60000C4F226
:103890000200006800F002010020B0EB510F04D1DB
:1038A000FFE701208DF80F008DE0FFE7FFE743F60B
:1038B0000801C4F20201086820F00300029A52686D
:1038C00010430860FFF71CFE0090FFE743F6080076
:1038D000C4F20200006800F00C0002994968B0EBE5
:1038E000810F0ED0FFE7FFF70BFE0099401A41F25F
:1038F0008931884204D3FFE703208DF80F0062E08E
:10390000E4E7FFE7019843F60041C4F202010968C9
:1039100001F00F01884212D2FFE7019943F60040FF
:10392000C4F202000170006800F00F0001998842A3
:1039300004D0FFE701208DF80F0044E0FFE7029874
:103940000078400700280CD5FFE743F60801C4F2D1
:103950000201086820F4E050029AD268104308601F
:10396000FFE702980078000700280DD5FFE743F62F
:103970000801C4F20201086820F46040029A12694A
:1039800040EAC2000860FFE700F04CF843F6080187
:10399000C4F202010968C9B20A094DF26021C0F6F9
:1039A0000001895CC84040F21001C2F200010860C9
:1039B00040F24030C2F200000068FFF7E3FD002053
:1039C0008DF80F00FFE79DF80F0004B080BD0000E8
:1039D00040F21000C2F200000068704780B5FFF7A7
:1039E000F7FF43F60801C4F202010968C1F382221D
:1039F0004DF27021C0F60001895CC84080BD000016
:103A000080B5FFF7E5FF43F60801C4F2020109683B
:103A100089B24A0B4DF27021C0F60001895CC840A2
:103A200080BD000080B586B0002005900490039012
:103A3000029043F60800C4F20200006800F00C0097
:103A40000146019140B1FFE7019804280AD0FFE741
:103A5000019808280CD04FE042F20040C0F2F40078
:103A600002904FE041F60030C0F2B700029049E00A
:103A700043F60400C4F20200016801F03F01059121
:103A800000684002002813D5FFE743F60400C4F2A3
:103A900002000068C0F3881041F60031C0F2B7019F
:103AA000A0FB0101059A0023FCF758FC049012E0EA
:103AB00043F60400C4F202000068C0F3881042F22A
:103AC0000041C0F2F401A0FB0101059A0023FCF7BC
:103AD00045FC0490FFE743F60400C4F202000068CE
:103AE00000F44031022000EBD13003900498039998
:103AF000B0FBF1F0029005E042F20040C0F2F400A9
:103B00000290FFE7029806B080BD000080B586B045
:103B10000490049820B9FFE701208DF8170050E3C6
:103B200004980078C007002800F0A580FFE743F65E
:103B30000800C4F20200006800F00C00042813D052
:103B4000FFE743F60800C4F20200006800F00C0032
:103B500008281ED1FFE743F60400C4F20200006803
:103B60004002002815D5FFE743F60000C4F202002A
:103B7000006800F400310020B0EB514F08D0FFE79F
:103B80000498406820B9FFE701208DF8170018E37A
:103B900070E0FFE704984068B0F5803F09D1FFE787
:103BA00043F60001C4F20201086840F48030086066
:103BB00020E004984068B0F5A02F0DD1FFE743F650
:103BC0000001C4F20201086840F48020086008681F
:103BD00040F4803008600CE043F60001C4F20201BA
:103BE000086820F480300860086820F480200860AD
:103BF000FFE7FFE7FFE704984068E8B1FFE7FFF75A
:103C00007FFC0390FFE743F60000C4F20200006867
:103C100000F400310020B0EB514F0CD1FFE7FFF76B
:103C20006FFC0399401A652804D3FFE703208DF841
:103C30001700C6E2E7E71CE0FFF762FC0390FFE72E
:103C400043F60000C4F20200006800F400310020D6
:103C5000B0EB514F0CD0FFE7FFF752FC0399401A2D
:103C6000652804D3FFE703208DF81700A9E2E7E7F2
:103C7000FFE7FFE7FFE7049800788007002840F19E
:103C80009680FFE743F60800C4F20200006810F0D7
:103C90000C0F13D0FFE743F60800C4F202000068DF
:103CA00000F00C0008282CD1FFE743F60400C4F212
:103CB000020000684002002823D4FFE743F600001A
:103CC000C4F20200006800F002010020B0EB510FC6
:103CD00009D0FFE70498C068012804D0FFE701205D
:103CE0008DF817006DE243F60001C4F20201086886
:103CF00020F0F800049A126940EAC2000860FFE769
:103D000054E00498C06870B3FFE70021C4F2472173
:103D100001200860FFF7F4FB0390FFE743F6000083
:103D2000C4F20200006800F002010020B0EB510F65
:103D30000CD1FFE7FFF7E4FB0399401A032804D3F3
:103D4000FFE703208DF817003BE2E7E743F60001A9
:103D5000C4F20201086820F0F800049A126940EAEF
:103D6000C200086021E00021C4F247210020086061
:103D7000FFF7C6FB0390FFE743F60000C4F2020022
:103D8000006800F002010020B0EB510F0CD0FFE7FB
:103D9000FFF7B6FB0399401A032804D3FFE703207B
:103DA0008DF817000DE2E7E7FFE7FFE7FFE704986C
:103DB0000078000700284BD5FFE70498406918B346
:103DC000FFE740F68061C4F2472101200860FFF759
:103DD00097FB0390FFE743F67400C4F2020000680B
:103DE00000F002010020B0EB510F0CD1FFE7FFF70C
:103DF00087FB0399401A032804D3FFE703208DF8BB
:103E00001700DEE1E7E722E040F68061C4F24721D7
:103E100000200860FFF774FB0390FFE743F674008F
:103E2000C4F20200006800F002010020B0EB510F64
:103E30000CD0FFE7FFF764FB0399401A032804D373
:103E4000FFE703208DF81700BBE1E7E7FFE7FFE797
:103E5000049800784007002840F1CE80FFE700205A
:103E60008DF8070043F64000C4F202000068C0006D
:103E7000002815D4FFE7FFE70020009043F640003C
:103E8000C4F20200016841F080510160006800F056
:103E9000805000900098FFE701208DF80700FFE7B1
:103EA00047F20000C4F200000068C005002822D4D8
:103EB000FFE747F20001C4F20001086840F4807097
:103EC0000860FFF71DFB0390FFE747F20000C4F214
:103ED00000000068C00500280CD4FFE7FFF710FBC6
:103EE0000399401A032804D3FFE703208DF8170035
:103EF00067E1EAE7FFE7FFE704988068012809D156
:103F0000FFE743F67001C4F20201086840F00100C7
:103F100008601FE00498806805280DD1FFE743F68C
:103F20007001C4F20201086840F0040008600868EB
:103F300040F0010008600CE043F67001C4F2020199
:103F4000086820F001000860086820F0040008609C
:103F5000FFE7FFE7FFE704988068F8B1FFE7FFF7A6
:103F6000CFFA0390FFE743F67000C4F20200006846
:103F700000F002010020B0EB510F0ED1FFE7FFF778
:103F8000BFFA0399401A41F28931884204D3FFE70E
:103F900003208DF8170014E1E5E71EE0FFF7B0FA03
:103FA0000390FFE743F67000C4F20200006800F0DF
:103FB00002010020B0EB510F0ED0FFE7FFF7A0FA8F
:103FC0000399401A41F28931884204D3FFE7032064
:103FD0008DF81700F5E0E5E7FFE79DF807000128F9
:103FE00009D1FFE743F64001C4F20201086820F05E
:103FF00080500860FFE7FFE704988069002800F020
:10400000DC80FFE743F60800C4F20200006800F01D
:104010000C00082800F08580FFE7049880690228DA
:104020005CD1FFE76021C4F2472100200860FFF760
:1040300067FA0390FFE743F60000C4F2020000684D
:1040400000F000710020B0EB516F0CD0FFE7FFF7DC
:1040500057FA0399401A032804D3FFE703208DF889
:104060001700AEE0E7E70499C869D1F820C04B6AB1
:104070008A6A40EA0C0040EA8310D2034FF6FF73CD
:104080009A43A2F580321043C96A40EA016043F6C0
:104090000401C4F2020108606021C4F2472101203A
:1040A0000860FFF72DFA0390FFE743F60000C4F223
:1040B0000200006800F000710020B0EB516F0CD1DD
:1040C000FFE7FFF71DFA0399401A032804D3FFE71F
:1040D00003208DF8170074E0E7E721E06021C4F2C7
:1040E000472100200860FFF70BFA0390FFE743F633
:1040F0000000C4F20200006800F000710020B0EB84
:10410000516F0CD0FFE7FFF7FBF90399401A032822
:1041100004D3FFE703208DF8170052E0E7E7FFE73D
:104120004AE004988069012804D1FFE701208DF856
:10413000170046E043F60400C4F202000068029053
:1041400004988069012831D0FFE7029800F48000CC
:104150000499C969884229D1FFE7029800F03F001D
:104160000499096A884221D1FFE7029847F6C07195
:1041700008400499496AB0EB811F17D1FFE7029804
:1041800000F440300499896AC9034FF6FF729143E5
:10419000A1F58031884209D1FFE7029800F07060F4
:1041A0000499C96AB0EB016F04D0FFE701208DF8D4
:1041B000170006E0FFE7FFE7FFE700208DF8170094
:1041C000FFE79DF8170006B080BD000080B582B003
:1041D0000190019801F098FB02B080BD80B586B0D7
:1041E00004900391ADF80A20049890F8420020282A
:1041F00048D1FFE7039820B1FFE7BDF80A0020B9D6
:10420000FFE701208DF8170040E0049901200863C2
:1042100004990020486304980399BDF80A2001F02E
:1042200067FE8DF809000498006B012821D1FFE793
:10423000FFE700200190049800680068019004984E
:104240000068406801900198FFE7FFE7FFE70498E6
:10425000006850E8030F40F010000090FFE700995D
:104260000498026842E803100028F0D1FFE7FFE756
:1042700003E001208DF80900FFE79DF809008DF8A3
:10428000170003E002208DF81700FFE79DF81700E4
:1042900006B080BD80B592B01190ADF84210119873
:1042A000006841F20001C4F20101884215D1FFE724
:1042B00040F2C040C2F200000E90D0F80822BDF8D3
:1042C000421000F582700F9090470E9A0F99119846
:1042D000B2F80422FFF782FFD8E01198006844F298
:1042E0000041C4F20001884215D1FFE740F2CC60E2
:1042F000C2F200000C90D0F80822BDF8421000F580
:1043000082700D9090470C9A0D991198B2F8042282
:10431000FFF764FFB9E01198006844F60001C4F2A9
:104320000001884215D1FFE740F6D800C2F2000034
:104330000A90D0F80822BDF8421000F582700B9068
:1043400090470A9A0B991198B2F80422FFF746FF9A
:104350009AE01198006844F60041C4F200018842D6
:1043600015D1FFE740F6E420C2F200000890D0F833
:104370000822BDF8421000F5827009909047089A13
:1043800009991198B2F80422FFF728FF7BE01198F1
:10439000006845F20001C4F20001884215D1FFE730
:1043A00040F6F040C2F200000690D0F80822BDF8B6
:1043B000421000F5827007909047069A079911986D
:1043C000B2F80422FFF70AFF5CE01198006841F29E
:1043D0000041C4F20101884215D1FFE740F6FC60BC
:1043E000C2F200000490D0F80822BDF8421000F597
:1043F000827005909047049A05991198B2F80422AA
:10440000FFF7ECFE3DE01198006847F60001C4F2AA
:104410000001884215D1FFE741F20810C2F2000006
:104420000290D0F80822BDF8421000F58270039087
:104430009047029A03991198B2F80422FFF7CEFE32
:104440001EE01198006847F60041C4F2000188425E
:1044500015D1FFE741F21430C2F200000090D0F80D
:104460000822BDF8421000F5827001909047009A32
:1044700001991198B2F80422FFF7B0FEFFE7FFE7B9
:10448000FFE7FFE7FFE7FFE7FFE7FFE712B080BDC9
:1044900080B582B00090009820B9FFE701208DF828
:1044A000070023E00099242081F84100009801686A
:1044B000C86820F40050C860009800F0CFFA009956
:1044C00000204864009981F84100009981F8420079
:1044D0000099086300994863FFE70099002081F87C
:1044E0004000FFE700208DF80700FFE79DF8070078
:1044F00002B080BD80B582B001900198006841F2A1
:104500000001C4F2010188420AD1FFE742F2D8411A
:10451000C2F2000108680130086004F08DFC1DE063
:104520000198006847F60001C4F20001884205D1F5
:10453000FFE704F035FD04F087FB0EE0019800680A
:1045400047F60041C4F20001884205D1FFE704F0BC
:1045500043FC04F031FBFFE7FFE7FFE702B080BD5B
:1045600080B592B011901198006800681090119871
:104570000068C0680F901198006840690E90002094
:104580000D900C90109800F00F000D900D9888B9C8
:10459000FFE79DF84000800600280AD5FFE79DF858
:1045A0003C008006002804D5FFE7119801F04EFB7F
:1045B00002E2FFE70D98002800F0C280FFE79DF8B7
:1045C0003800C00738B9FFE7BDF83C0010F4907F11
:1045D00000F0B680FFE79DF84000C00758B1FFE744
:1045E0009DF83D00C00730B1FFE71199486C40F0DD
:1045F00001004864FFE79DF84000400700280BD504
:10460000FFE79DF83800C00730B1FFE71199486C0B
:1046100040F002004864FFE79DF840008007002852
:104620000BD5FFE79DF83800C00730B1FFE71199BF
:10463000486C40F004004864FFE79DF84000000724
:10464000002811D5FFE79DF83C008006002805D41E
:10465000FFE79DF83800C00730B1FFE71199486CBB
:1046600040F008004864FFE71198406C002866D0CD
:10467000FFE79DF84000800600280AD5FFE79DF877
:104680003C008006002804D5FFE7119801F0DEFA0F
:10469000FFE7119800684069C0F380100C901198F2
:1046A000406C0007002804D4FFE70C9800283ED097
:1046B000FFE7119801F050FA119800684069400630
:1046C00000282FD5FFE7FFE7FFE71198006850E8C3
:1046D000050F20F040000B90FFE70B99119802683E
:1046E00042E805100028F0D1FFE7FFE71198C06B02
:1046F00098B1FFE71198C16B45F69910C0F600001C
:1047000008651198C06BFEF75DF828B1FFE71198B6
:10471000C06B016D8847FFE703E01198FFF7EAFEE1
:10472000FFE703E01198FFF7E5FEFFE706E01198C9
:10473000FFF7E0FE119900204864FFE7FFE73BE147
:104740001198006B012840F01781FFE79DF84000A9
:10475000C006002840F11081FFE79DF83C00C0062C
:10476000002840F10981FFE7FFE700200A90119837
:10477000006800680A901198006840680A900A98DA
:10478000FFE71198006840694006002840F19A80D0
:10479000FFE71198C06B00684068ADF82600BDF8CF
:1047A0002600002875D0FFE7BDF826001199898DF5
:1047B00088426EDAFFE7BDF826001199C885119886
:1047C000C06BC069B0F5807F58D0FFE7FFE7FFE717
:1047D0001198006850E8030F20F480700890FFE7FC
:1047E00008991198026842E803100028F0D1FFE709
:1047F000FFE7FFE7FFE71198006850E8050F20F09A
:1048000001000790FFE707991198026842E8051038
:104810000028F0D1FFE7FFE7FFE7FFE71198006806
:1048200050E8050F20F040000690FFE70699119828
:10483000026842E805100028F0D1FFE7FFE7119970
:10484000202081F84200119900200863FFE7FFE76C
:104850001198006850E8030F20F010000590FFE762
:1048600005991198026842E803100028F0D1FFE78B
:10487000FFE71198C06BFDF72FFFFFE711990220AA
:1048800048631198818DC28D891A89B2FFF702FDA4
:1048900017E0BDF826001199898D884210D1FFE7F5
:1048A0001198C06BC069B0F5807F08D1FFE71199FE
:1048B000022048631198818DFFF7ECFCFFE7FFE7CA
:1048C000FFE779E01199888DC98D401AADF8120083
:1048D0001198C08D00284ED0FFE7BDF812000028C7
:1048E00049D0FFE7FFE7FFE71198006850E8030FA2
:1048F00020F490700390FFE703991198026842E852
:1049000003100028F0D1FFE7FFE7FFE7FFE711986A
:10491000006850E8050F20F001000290FFE70299BF
:104920001198026842E805100028F0D1FFE7FFE780
:104930001199202081F84200119900200863FFE7B7
:10494000FFE71198006850E8030F20F01000019075
:10495000FFE701991198026842E803100028F0D19E
:10496000FFE7FFE71199022048631198BDF8121084
:10497000FFF790FCFFE71FE09DF8400000060028CD
:104980000AD5FFE79DF83C000006002804D5FFE7A4
:10499000119801F077FB0FE09DF8400040060028D9
:1049A0000AD5FFE79DF83C004006002804D5FFE744
:1049B000119801F01BF9FFE712B080BD80B582B0FD
:1049C0000090009820B9FFE701208DF8070040E033
:1049D0000098806908B1FFE700E0FFE7009890F8D1
:1049E000410040B9FFE70099002081F8400000989D
:1049F00000F0B6F8FFE70099242081F84100009804
:104A00000168C86820F40050C860009801F0D2F92D
:104A100000980168086920F49040086100980168D6
:104A2000486920F02A00486100980168C86840F48D
:104A30000050C860009900204864009A202182F844
:104A40004110009A82F84210009948638DF80700DF
:104A5000FFE79DF8070002B080BD000080B582B07E
:104A600001900198006847F60001C4F200018842F5
:104A700014D1FFE743F64001C4F20201086820F0B8
:104A80008040086041F20000C4F202004FF4C0719F
:104A9000FEF7E0F95220FEF7D3FD5EE001980068D2
:104AA00047F60041C4F20001884213D1FFE743F604
:104AB0004001C4F20201086820F00040086041F2A1
:104AC0000000C4F202000321FEF7C4F95320FEF7F0
:104AD000B7FD41E00198006841F20001C4F2010114
:104AE00088421ED1FFE743F64401C4F20201086880
:104AF00020F01000086040F20040C4F20200802163
:104B0000FEF7A8F90020C4F202004FF40071FEF78E
:104B1000A1F90198C06BFDF777FE2520FEF790FD07
:104B200019E00198006844F20041C4F20001884293
:104B300010D1FFE743F64001C4F20201086820F4F7
:104B40000030086040F60040C4F202006021FEF729
:104B500081F9FFE7FFE7FFE7FFE702B080BD000054
:104B600080B59AB019900020189017901690159063
:104B700014901998006847F60001C4F200018842B9
:104B80003FD1FFE7FFE70020139043F64000C4F257
:104B90000200016841F080410160006800F080403F
:104BA00013901398FFE7FFE70020129043F63000C0
:104BB000C4F20200016841F010010160006800F0D9
:104BC000100012901298FFE74FF4C070149002206A
:104BD0001590002009901690032017900820189037
:104BE00041F20000C4F2020014A9FEF761FA099A2A
:104BF00052200A901146FEF737FD0A98FEF72AFD6B
:104C000023E11998006847F60041C4F20001884288
:104C10003DD1FFE7FFE70020119043F64000C4F2CA
:104C20000200016841F000410160006800F00040AE
:104C300011901198FFE7FFE70020109043F6300035
:104C4000C4F20200016841F010010160006800F048
:104C5000100010901098FFE7032014900221159186
:104C600000210791169117900820189041F200003A
:104C7000C4F2020014A9FEF71BFA079A5320089009
:104C80001146FEF7F1FC0898FEF7E4FCDCE0199809
:104C9000006841F20001C4F20101884240F09580B1
:104CA000FFE7FFE700200F9043F64400C4F2020044
:104CB000016841F010010160006800F010000F90E1
:104CC0000F98FFE7FFE700200E9043F63000C4F294
:104CD0000200016841F002010160006800F002007A
:104CE0000E900E98FFE7FFE700200D9043F630008E
:104CF000C4F20200016841F001010160006800F0A7
:104D000001000D900D98FFE7802014900220019083
:104D10001590002005901690032002901790072010
:104D20000390189040F20040C4F2020014A90491CC
:104D3000FEF7BEF9DDF804C0029A03980499059BBA
:104D40004FF4007ECDF850E0CDF854C01693179282
:104D500018900020C4F20200FEF7AAF9059941F666
:104D60002440C2F20000069046F24042C4F2020221
:104D700002604FF0006242608160C1604FF4806267
:104D80000261416181614FF48072C2614FF440322F
:104D900002624162FDF722FF18B1FFE7FCF744FD14
:104DA000FFE7FFE7199841F62441C2F20001C16311
:104DB00019988863FFE72520009000221146FEF72E
:104DC00053FC0098FEF746FC3DE01998006844F259
:104DD0000041C4F20001884234D1FFE7FFE7002020
:104DE0000C9043F64000C4F20200016841F4003127
:104DF0000160006800F400300C900C98FFE7FFE7BA
:104E000000200B9043F63000C4F20200016841F02C
:104E100008010160006800F008000B900B98FFE7A4
:104E20006020149002201590002016900320179007
:104E30000720189040F60040C4F2020014A9FEF7C3
:104E400037F9FFE7FFE7FFE7FFE71AB080BD000093
:104E500080B584B002900191ADF80220029890F8DC
:104E60004200202817D1FFE7019820B1FFE7BDF8E5
:104E7000020020B9FFE701208DF80F000FE0029932
:104E80000020086302980199BDF8022001F0C8F8DB
:104E90008DF80F0003E002208DF80F00FFE79DF86A
:104EA0000F0004B080BD000080B586B00590059865
:104EB000006841F20001C4F20101884240F099808B
:104EC000FFE742F2D441C2F20001086801300860F5
:104ED00042F29C40C2F20000007842F2C441C2F2A9
:104EE00000010870FEF70CFB42F2C841C2F200015B
:104EF000086040F24430C2F20000007838B3FFE7A7
:104F000042F29C40C2F2000000780F281ED1FFE759
:104F100042F2C041C2F2000108680130086042F26A
:104F20009C40C2F20000007842F29D41C2F20001B2
:104F3000087042F2BC41C2F200010120087040F248
:104F40004431C2F2000100200870FFE740E042F265
:104F50009C40C2F20000017842F2BC40C2F2000064
:104F6000037842F29D42C2F20002D154017801312D
:104F70000170007819282ADBFFE742F2B841C2F23B
:104F8000000108680130086042F29D40C2F2000052
:104F9000C17D42F2CD42C2F200021170007E42F2A7
:104FA000CC41C2F200010870FEF7AAFA42F2D041E9
:104FB000C2F20001086042F2B641C2F200010120D3
:104FC000087040F24431C2F200010870FFE7FFE7C9
:104FD00041F68440C2F2000042F29C41C2F200015C
:104FE0000122FFF735FF18B1FFE703F025FFFFE7C8
:104FF00080E10598006847F60001C4F2000188428C
:1050000040F01D81FFE741F6D030C2F20000007889
:1050100041F6C131C2F20001087041F6CC31C2F252
:10502000000108680130086041F6C030C2F200009B
:105030000078F0B9FFE741F6D030C2F20000007806
:10504000552803D0FFE703F0FFFD53E141F6D030D0
:10505000C2F20000007841F6C031C2F200010B78C4
:1050600041F6AC32C2F20002D05408780130087028
:10507000E2E041F6D030C2F20000017841F6C030E3
:10508000C2F20000037841F6AC32C2F20002D15401
:1050900001780131017000780B28C0F0CC80FFE767
:1050A00041F6C031C2F20001002008708DF81300F3
:1050B0000390FFE70398092810DCFFE7039941F606
:1050C000AC30C2F20000415C9DF8130008448DF83A
:1050D0001300FFE7039801300390EBE79DF81300FE
:1050E00041F6AC31C2F20001897A884240F09A80E0
:1050F000FFE741F6BC31C2F20001086801300860E8
:1051000041F6AC30C2F200000090407841F6C83160
:10511000C2F200010870FEF7F3F90146009841F66B
:10512000C432C2F200021160407852281FD1FFE75A
:1051300041F6AC31C2F200018879C97940EA012018
:10514000ADF80A00BDF90A0000EE100AB8EEC00A78
:105150009FED691A80EE010A9FED691A20EE010A9F
:1051600042F29840C2F2000080ED000A59E041F698
:10517000AC30C2F200004078532851D1FFE741F62D
:10518000AC31C2F200018878CA7840EA0220ADF85A
:10519000080008794A7940EA0220ADF806008879CB
:1051A000C97940EA0120ADF8040042F29841C2F208
:1051B000000100200860BDF9080000EE100AB8EEFA
:1051C000C00A9FED4D2A80EE020A9FED4C1A20EE98
:1051D000010A42F29040C2F2000080ED000ABDF9DF
:1051E000060000EE100AB8EEC00A80EE020A20EEB9
:1051F000010A42F28C40C2F2000080ED000ABDF9C3
:10520000040000EE100AB8EEC00A80EE020A20EE9A
:10521000010A42F29440C2F2000080ED000AFFE76A
:10522000FFE707E041F6B831C2F20001086801303B
:105230000860FFE7FFE7FFE703F006FD59E0059888
:10524000006847F60041C4F20001884250D1FFE7F0
:1052500041F6B051C2F2000108680130086041F621
:10526000AC50C2F20000007841F22051C2F20001BD
:105270000A784DF28021C0F60001895C884220D175
:10528000FFE741F22050C2F20000017801310170C5
:105290000078032814D3FFE741F6A451C2F20001BD
:1052A0000120087041F6A851C2F2000108680130DF
:1052B000086041F22051C2F2000100200870FFE7AF
:1052C00013E041F6AC50C2F2000000784DF28021AC
:1052D000C0F600010978401AB0FA80F0400941F2A6
:1052E0002051C2F200010870FFE703F065FCFFE700
:1052F000FFE7FFE706B080BD000000470000344331
:105300000000FA4481B0009001B0704780B58AB0C7
:1053100008900791ADF81A20059300200290089894
:1053200090F84100202840F08180FFE7079820B1E5
:10533000FFE7BDF81A0020B9FFE701208DF827002C
:1053400078E00899002048640899212081F84100FC
:10535000FEF7D6F80290BDF81A0008998884BDF8C7
:105360001A000899C88408988068B0F5805F09D150
:10537000FFE70898006928B9FFE700200490079824
:10538000039004E00798049000200390FFE7FFE7F4
:105390000898C08C78B3FFE70898029B05996A4685
:1053A00011608021002200F0B7FE40B1FFE70899AC
:1053B000202081F8410003208DF827003AE004986E
:1053C00058B9FFE7039800886FF35F2008990968D0
:1053D000486003980230039008E004980078089928
:1053E00009684860049801300490FFE70899C88C68
:1053F0000138C884CCE70898029B05996A46116079
:105400004021002200F088FE40B1FFE708992020EB
:1054100081F8410003208DF827000BE00899202037
:1054200081F8410000208DF8270003E002208DF86C
:105430002700FFE79DF827000AB080BD81B00090EB
:1054400001B07047FFE7FEE780B582B041F6D43087
:10545000C2F20000009046F20041C4F20001016077
:1054600009214160002101918160C1604FF48032C7
:1054700002614FF480124261017641768176C176F5
:1054800001774177FCF758FE18B1FFE7FCF7CCF93C
:10549000FFE702B080BD000080B582B041F6FC306D
:1054A000C2F20000009046F60001C4F20001016063
:1054B00009214160002101918160C1604FF4803277
:1054C00002614FF480124261017641768176C176A5
:1054D00001774177FCF730FE18B1FFE7FCF7A4F93C
:1054E000FFE702B080BD000080B582B0FFE700207A
:1054F000019043F63000C4F20200016841F48001DB
:105500000160006800F4800001900198FFE73A20F4
:10551000009000221146FEF7A7F80098FEF79AF8CF
:1055200002B080BD80B59AB00020199018901790F5
:1055300016901590FFE70020149043F63000C4F257
:105540000200016841F010010160006800F01000E5
:1055500014901498FFE7FFE70020139043F6300003
:10556000C4F20200016841F001010160006800F02E
:10557000010013901398FFE7FFE70020129043F615
:105580003000C4F20200016841F0020101600068CD
:1055900000F0020012901298FFE7FFE70020119040
:1055A00043F63000C4F20200016841F008010160D6
:1055B000006800F0080011901198FFE7FFE7002055
:1055C000109043F63000C4F20200016841F480718B
:1055D0000160006800F4807010901098FFE7FFE70A
:1055E00000200F9043F63000C4F20200016841F041
:1055F00080010160006800F080000F900F98FFE7C5
:10560000FFE700200E9043F63000C4F2020001686C
:1056100041F040010160006800F040000E900E98DB
:10562000FFE742F20000C4F202000290E42101917F
:1056300000220B92FDF74CFF0B9A41F60000C4F2DA
:10564000020004904FF4EF710391FDF741FF0B9AB4
:1056500041F60040C4F2020006904FF480610591CB
:10566000FDF736FF0B9A40F60040C4F202000790A7
:105670004FF47041FDF72CFF0B9A0020C4F202009A
:105680000C900B210A91FDF723FF019A02980B99C8
:1056900015920122089216920222099217921891ED
:1056A00015A90D91FDF704FDDDF80CC00498089BC9
:1056B0000B9A0D99CDF854C0169317921892FDF7D6
:1056C000F7FC04980B9A0D99202315934FF4881337
:1056D00016931792FDF7ECFCDDF814C00698089BB2
:1056E0000B9A0D99CDF854C0169317931892FDF7A5
:1056F000DFFC0798089B0B9A0D994FF4404CCDF8AE
:1057000054C0169317931892FDF7D2FC0798089B84
:105710000B9A0D994FF4005CCDF854C01693179373
:105720001892FDF7C5FC0798DDF820C0099B0B9A7D
:105730000D994FF4805ECDF854E0CDF858C0179322
:105740001892FDF7B5FCDDF820C0099B0B9A0C9868
:105750000D99DDF828E0CDF854E0CDF858C0179346
:105760001892FDF7A5FC0B9A0C980D99042315933C
:1057700016921792FDF79CFC1AB080BD80B582B0DE
:1057800041F61450C2F20000019047F60001C4F245
:10579000000101604FF41651416000218160C16039
:1057A00001610C2242618161C161FFF707F918B103
:1057B000FFE7FCF739F8FFE702B080BD80B582B0A3
:1057C00041F65C50C2F20000019047F60041C4F27D
:1057D000000101604FF4E131416000218160C1604E
:1057E00001610C2242618161C161FFF7E7F818B1E4
:1057F000FFE7FCF719F8FFE702B080BD80B582B083
:1058000041F68440C2F20000019041F20001C4F26E
:105810000101016048F2A061C0F2010141604FF452
:10582000805181604FF40051C1604FF4806101618B
:105830000C21416100218161C161FFF7BFF818B1FE
:10584000FFE7FBF7F1FFFFE702B080BD80B582B054
:1058500041F6CC40C2F20000019044F20041C4F293
:10586000000101604FF4E131416000218160C160BD
:1058700001610C2242618161C161FFF79FF818B19B
:10588000FFE7FBF7D1FFFFE702B080BDFFE7FEE7D0
:10589000FFE7FEE788B0079006910592079800F0B1
:1058A000070004900498C0F10700052803D3FFE720
:1058B0000420019004E00498C0F107000190FFE784
:1058C0000198039004980430062803D8FFE70020CD
:1058D000009003E0049803380090FFE700980290DE
:1058E00006980399012202FA01F101390840029B4E
:1058F000984005999A40013A1140084308B0704712
:10590000704700007047000080B582B0009000989A
:105910000138B0F1807F03D3FFE70120019019E047
:10592000009801384EF21401CEF2000108604FF0E9
:10593000FF300F2105F000FB4EF21801CEF20001FE
:10594000002008604EF21002CEF200020721116022
:105950000190FFE7019802B080BD000080B5FDF71F
:10596000E7FD80BD4EF68851CEF20001086840F494
:10597000700008607047000080B541F61450C2F214
:105980000000FEF7EDFD80BD80B541F65C50C2F22F
:105990000000FEF7E5FD80BD80B582B00190019862
:1059A000806B009000990020C8850098FEF7A2FD4A
:1059B00002B080BD80B584B00390002002900398AF
:1059C000806B0190019800684069C0B2C0090290E4
:1059D000019890F8410021280AD1FFE7029838B1D8
:1059E000FFE701990020C884019800F013F9FFE750
:1059F000019800684069C0F380100290019890F807
:105A0000420022280AD1FFE7029838B1FFE7019946
:105A10000020C885019800F09FF8FFE70199486CC5
:105A200040F0100048640198FEF764FD04B080BDAA
:105A300080B586B005900598806B04900598006845
:105A40000068C00500285AD4FFE704990020C885E3
:105A5000FFE7FFE70498006850E8030F20F4807028
:105A60000390FFE703990498026842E803100028B6
:105A7000F0D1FFE7FFE7FFE7FFE70498006850E891
:105A8000050F20F001000290FFE7029904980268D8
:105A900042E805100028F0D1FFE7FFE7FFE7FFE746
:105AA0000498006850E8050F20F040000190FFE7DF
:105AB00001990498026842E805100028F0D1FFE738
:105AC000FFE70499202081F842000498006B012828
:105AD00014D1FFE7FFE7FFE70498006850E8030FE1
